{
  "contractName": "EthVault",
  "abi": [
    {
      "inputs": [
        {
          "internalType": "uint256",
          "name": "timeToMaturity",
          "type": "uint256"
        },
        {
          "internalType": "string",
          "name": "name",
          "type": "string"
        }
      ],
      "name": "createNewVault",
      "outputs": [],
      "stateMutability": "nonpayable",
      "type": "function"
    },
    {
      "inputs": [
        {
          "internalType": "uint256",
          "name": "id",
          "type": "uint256"
        }
      ],
      "name": "addToVault",
      "outputs": [],
      "stateMutability": "payable",
      "type": "function"
    },
    {
      "inputs": [
        {
          "internalType": "uint256",
          "name": "id",
          "type": "uint256"
        }
      ],
      "name": "withdrawFromVault",
      "outputs": [],
      "stateMutability": "nonpayable",
      "type": "function"
    },
    {
      "inputs": [],
      "name": "get",
      "outputs": [
        {
          "components": [
            {
              "internalType": "uint256",
              "name": "amount",
              "type": "uint256"
            },
            {
              "internalType": "uint256",
              "name": "maturity",
              "type": "uint256"
            },
            {
              "internalType": "bool",
              "name": "active",
              "type": "bool"
            },
            {
              "internalType": "bool",
              "name": "withdrawed",
              "type": "bool"
            },
            {
              "internalType": "string",
              "name": "name",
              "type": "string"
            }
          ],
          "internalType": "struct EthVault.Vault[]",
          "name": "",
          "type": "tuple[]"
        }
      ],
      "stateMutability": "view",
      "type": "function"
    }
  ],
  "bytecode": "0x608060405234801561001057600080fd5b50611250806100206000396000f3fe60806040526004361061003f5760003560e01c8063076d0815146100445780633691a9e21461006d5780636d4ce63c1461008957806383e7dc61146100b4575b600080fd5b34801561005057600080fd5b5061006b600480360381019061006691906109ba565b6100dd565b005b610087600480360381019061008291906109ba565b6102b8565b005b34801561009557600080fd5b5061009e610492565b6040516100ab9190610be2565b60405180910390f35b3480156100c057600080fd5b506100db60048036038101906100d69190610d39565b610655565b005b60008060003373ffffffffffffffffffffffffffffffffffffffff1673ffffffffffffffffffffffffffffffffffffffff168152602001908152602001600020828154811061012f5761012e610d95565b5b906000526020600020906004020190506000816000015411610186576040517f08c379a000000000000000000000000000000000000000000000000000000000815260040161017d90610e21565b60405180910390fd5b42816001015411156101cd576040517f08c379a00000000000000000000000000000000000000000000000000000000081526004016101c490610e8d565b60405180910390fd5b600015158160020160019054906101000a900460ff16151514610225576040517f08c379a000000000000000000000000000000000000000000000000000000000815260040161021c90610ef9565b60405180910390fd5b3373ffffffffffffffffffffffffffffffffffffffff166108fc82600001549081150290604051600060405180830381858888f1935050505015801561026f573d6000803e3d6000fd5b506000816000018190555060018160020160016101000a81548160ff02191690831515021790555060008160020160006101000a81548160ff0219169083151502179055505050565b60008060003373ffffffffffffffffffffffffffffffffffffffff1673ffffffffffffffffffffffffffffffffffffffff168152602001908152602001600020828154811061030a57610309610d95565b5b9060005260206000209060040201600101541161035c576040517f08c379a000000000000000000000000000000000000000000000000000000000815260040161035390610f65565b60405180910390fd5b600115156000803373ffffffffffffffffffffffffffffffffffffffff1673ffffffffffffffffffffffffffffffffffffffff16815260200190815260200160002082815481106103b0576103af610d95565b5b906000526020600020906004020160020160009054906101000a900460ff16151514610411576040517f08c379a000000000000000000000000000000000000000000000000000000000815260040161040890610fd1565b60405180910390fd5b60008060003373ffffffffffffffffffffffffffffffffffffffff1673ffffffffffffffffffffffffffffffffffffffff168152602001908152602001600020828154811061046357610462610d95565b5b90600052602060002090600402019050348160000160008282546104879190611020565b925050819055505050565b60606000600160003373ffffffffffffffffffffffffffffffffffffffff1673ffffffffffffffffffffffffffffffffffffffff16815260200190815260200160002054116104e057600080fd5b6000803373ffffffffffffffffffffffffffffffffffffffff1673ffffffffffffffffffffffffffffffffffffffff168152602001908152602001600020805480602002602001604051908101604052809291908181526020016000905b8282101561064c57838290600052602060002090600402016040518060a001604052908160008201548152602001600182015481526020016002820160009054906101000a900460ff161515151581526020016002820160019054906101000a900460ff161515151581526020016003820180546105bb906110a5565b80601f01602080910402602001604051908101604052809291908181526020018280546105e7906110a5565b80156106345780601f1061060957610100808354040283529160200191610634565b820191906000526020600020905b81548152906001019060200180831161061757829003601f168201915b5050505050815250508152602001906001019061053e565b50505050905090565b60056000803373ffffffffffffffffffffffffffffffffffffffff1673ffffffffffffffffffffffffffffffffffffffff16815260200190815260200160002080549050106106d9576040517f08c379a00000000000000000000000000000000000000000000000000000000081526004016106d090611122565b60405180910390fd5b6000821161071c576040517f08c379a00000000000000000000000000000000000000000000000000000000081526004016107139061118e565b60405180910390fd5b6000815103610760576040517f08c379a0000000000000000000000000000000000000000000000000000000008152600401610757906111fa565b60405180910390fd5b6000803373ffffffffffffffffffffffffffffffffffffffff1673ffffffffffffffffffffffffffffffffffffffff1681526020019081526020016000206040518060a001604052806000815260200184426107bc9190611020565b8152602001600115158152602001600015158152602001838152509080600181540180825580915050600190039060005260206000209060040201600090919091909150600082015181600001556020820151816001015560408201518160020160006101000a81548160ff02191690831515021790555060608201518160020160016101000a81548160ff02191690831515021790555060808201518160030190805190602001906108709291906108cd565b50505060018060003373ffffffffffffffffffffffffffffffffffffffff1673ffffffffffffffffffffffffffffffffffffffff16815260200190815260200160002060008282546108c29190611020565b925050819055505050565b8280546108d9906110a5565b90600052602060002090601f0160209004810192826108fb5760008555610942565b82601f1061091457805160ff1916838001178555610942565b82800160010185558215610942579182015b82811115610941578251825591602001919060010190610926565b5b50905061094f9190610953565b5090565b5b8082111561096c576000816000905550600101610954565b5090565b6000604051905090565b600080fd5b600080fd5b6000819050919050565b61099781610984565b81146109a257600080fd5b50565b6000813590506109b48161098e565b92915050565b6000602082840312156109d0576109cf61097a565b5b60006109de848285016109a5565b91505092915050565b600081519050919050565b600082825260208201905092915050565b6000819050602082019050919050565b610a1c81610984565b82525050565b60008115159050919050565b610a3781610a22565b82525050565b600081519050919050565b600082825260208201905092915050565b60005b83811015610a77578082015181840152602081019050610a5c565b83811115610a86576000848401525b50505050565b6000601f19601f8301169050919050565b6000610aa882610a3d565b610ab28185610a48565b9350610ac2818560208601610a59565b610acb81610a8c565b840191505092915050565b600060a083016000830151610aee6000860182610a13565b506020830151610b016020860182610a13565b506040830151610b146040860182610a2e565b506060830151610b276060860182610a2e565b5060808301518482036080860152610b3f8282610a9d565b9150508091505092915050565b6000610b588383610ad6565b905092915050565b6000602082019050919050565b6000610b78826109e7565b610b8281856109f2565b935083602082028501610b9485610a03565b8060005b85811015610bd05784840389528151610bb18582610b4c565b9450610bbc83610b60565b925060208a01995050600181019050610b98565b50829750879550505050505092915050565b60006020820190508181036000830152610bfc8184610b6d565b905092915050565b600080fd5b600080fd5b7f4e487b7100000000000000000000000000000000000000000000000000000000600052604160045260246000fd5b610c4682610a8c565b810181811067ffffffffffffffff82111715610c6557610c64610c0e565b5b80604052505050565b6000610c78610970565b9050610c848282610c3d565b919050565b600067ffffffffffffffff821115610ca457610ca3610c0e565b5b610cad82610a8c565b9050602081019050919050565b82818337600083830152505050565b6000610cdc610cd784610c89565b610c6e565b905082815260208101848484011115610cf857610cf7610c09565b5b610d03848285610cba565b509392505050565b600082601f830112610d2057610d1f610c04565b5b8135610d30848260208601610cc9565b91505092915050565b60008060408385031215610d5057610d4f61097a565b5b6000610d5e858286016109a5565b925050602083013567ffffffffffffffff811115610d7f57610d7e61097f565b5b610d8b85828601610d0b565b9150509250929050565b7f4e487b7100000000000000000000000000000000000000000000000000000000600052603260045260246000fd5b600082825260208201905092915050565b7f4f776e657220646f6573206e6f7420686176652062616c6c616e636500000000600082015250565b6000610e0b601c83610dc4565b9150610e1682610dd5565b602082019050919050565b60006020820190508181036000830152610e3a81610dfe565b9050919050565b7f7769746864726177616c20746f6f206561726c79000000000000000000000000600082015250565b6000610e77601483610dc4565b9150610e8282610e41565b602082019050919050565b60006020820190508181036000830152610ea681610e6a565b9050919050565b7f50616964206f757420616c726561647900000000000000000000000000000000600082015250565b6000610ee3601083610dc4565b9150610eee82610ead565b602082019050919050565b60006020820190508181036000830152610f1281610ed6565b9050919050565b7f63616e74206465706f73697420746f20756e6578697374616e74207661756c74600082015250565b6000610f4f602083610dc4565b9150610f5a82610f19565b602082019050919050565b60006020820190508181036000830152610f7e81610f42565b9050919050565b7f63616e74206465706f73697420746f2077697468647261776e207661756c7400600082015250565b6000610fbb601f83610dc4565b9150610fc682610f85565b602082019050919050565b60006020820190508181036000830152610fea81610fae565b9050919050565b7f4e487b7100000000000000000000000000000000000000000000000000000000600052601160045260246000fd5b600061102b82610984565b915061103683610984565b9250827fffffffffffffffffffffffffffffffffffffffffffffffffffffffffffffffff0382111561106b5761106a610ff1565b5b828201905092915050565b7f4e487b7100000000000000000000000000000000000000000000000000000000600052602260045260246000fd5b600060028204905060018216806110bd57607f821691505b6020821081036110d0576110cf611076565b5b50919050565b7f796f7520616c726561647920686176652035207661756c747300000000000000600082015250565b600061110c601983610dc4565b9150611117826110d6565b602082019050919050565b6000602082019050818103600083015261113b816110ff565b9050919050565b7f706c65617365207365742074696d6520746f206d617475726974790000000000600082015250565b6000611178601b83610dc4565b915061118382611142565b602082019050919050565b600060208201905081810360008301526111a78161116b565b9050919050565b7f6e616d652063616e7420626520656d7074790000000000000000000000000000600082015250565b60006111e4601283610dc4565b91506111ef826111ae565b602082019050919050565b60006020820190508181036000830152611213816111d7565b905091905056fea2646970667358221220b7b97119db6753ddabfdbdef68ba5e62de283d1d94261315fb7d373470a2e71f64736f6c634300080d0033",
  "immutableReferences": {},
  "source": "// SPDX-License-Identifier: MIT\r\npragma solidity ^0.8.0;\r\n\r\ncontract EthVault {\r\n    \r\n    struct Vault {\r\n        uint256 amount;\r\n        uint maturity;\r\n        bool active;\r\n        bool withdrawed;\r\n        string name;\r\n    }\r\n\r\n    mapping(address => Vault[]) private vaults;\r\n    mapping(address => uint) private noOfVaults;\r\n\r\n    // mapping(address => mapping(uint => Vault)) addressToVaultID;\r\n\r\n    function createNewVault(uint timeToMaturity, string memory name) external {\r\n        require(vaults[msg.sender].length < 5, 'you already have 5 vaults');\r\n        require(timeToMaturity > 0, 'please set time to maturity');\r\n        require(bytes(name).length != 0 , 'name cant be empty');\r\n\r\n        vaults[msg.sender].push(  Vault(0, block.timestamp + timeToMaturity, true, false, name) );\r\n        noOfVaults[msg.sender]+=1;\r\n    }\r\n\r\n    function addToVault(uint id) external payable {\r\n        //msg.value > 0?\r\n        require(vaults[msg.sender][id].maturity > 0, 'cant deposit to unexistant vault');\r\n        require(vaults[msg.sender][id].active == true, 'cant deposit to withdrawn vault');\r\n        Vault storage owner = vaults[msg.sender][id];\r\n        owner.amount += msg.value;\r\n    }\r\n    \r\n    function withdrawFromVault(uint id) external {\r\n        Vault storage owner = vaults[msg.sender][id];\r\n\r\n        require(owner.amount > 0, 'Owner does not have ballance');\r\n        require(owner.maturity <= block.timestamp, 'withdrawal too early');\r\n        require(owner.withdrawed == false, 'Paid out already');\r\n\r\n        payable(msg.sender).transfer(owner.amount);\r\n\r\n        owner.amount = 0;\r\n        owner.withdrawed = true;\r\n        owner.active = false;\r\n    }\r\n\r\n    function get() public view returns(Vault[] memory){\r\n        require(noOfVaults[msg.sender] > 0);\r\n        return vaults[msg.sender];\r\n    }\r\n\r\n}\r\n",
  "sourcePath": "C:\\Users\\Kostya\\Desktop\\ethvault-test\\contracts\\EthVault.sol",
  "compiler": {
    "name": "solc",
    "version": "0.8.13+commit.abaa5c0e.Emscripten.clang"
  },
  "schemaVersion": "3.4.4",
  "updatedAt": "2022-03-18T17:21:02.768Z",
  "devdoc": {
    "kind": "dev",
    "methods": {},
    "version": 1
  },
  "userdoc": {
    "kind": "user",
    "methods": {},
    "version": 1
  }
}